{
  "_format": "hh-sol-artifact-1",
  "contractName": "NftLinker",
  "sourceName": "examples/nft-linker/NftLinker.sol",
  "abi": [
    {
      "inputs": [
        {
          "internalType": "address",
          "name": "gateway_",
          "type": "address"
        },
        {
          "internalType": "address",
          "name": "gasReceiver_",
          "type": "address"
        }
      ],
      "stateMutability": "nonpayable",
      "type": "constructor"
    },
    {
      "inputs": [],
      "name": "AlreadyInitialized",
      "type": "error"
    },
    {
      "inputs": [],
      "name": "InvalidAddress",
      "type": "error"
    },
    {
      "inputs": [],
      "name": "InvalidCodeHash",
      "type": "error"
    },
    {
      "inputs": [],
      "name": "InvalidImplementation",
      "type": "error"
    },
    {
      "inputs": [],
      "name": "InvalidOwner",
      "type": "error"
    },
    {
      "inputs": [],
      "name": "NotApprovedByGateway",
      "type": "error"
    },
    {
      "inputs": [],
      "name": "NotOwner",
      "type": "error"
    },
    {
      "inputs": [],
      "name": "NotProxy",
      "type": "error"
    },
    {
      "inputs": [],
      "name": "SetupFailed",
      "type": "error"
    },
    {
      "anonymous": false,
      "inputs": [
        {
          "indexed": true,
          "internalType": "address",
          "name": "owner",
          "type": "address"
        },
        {
          "indexed": true,
          "internalType": "address",
          "name": "approved",
          "type": "address"
        },
        {
          "indexed": true,
          "internalType": "uint256",
          "name": "tokenId",
          "type": "uint256"
        }
      ],
      "name": "Approval",
      "type": "event"
    },
    {
      "anonymous": false,
      "inputs": [
        {
          "indexed": true,
          "internalType": "address",
          "name": "owner",
          "type": "address"
        },
        {
          "indexed": true,
          "internalType": "address",
          "name": "operator",
          "type": "address"
        },
        {
          "indexed": false,
          "internalType": "bool",
          "name": "approved",
          "type": "bool"
        }
      ],
      "name": "ApprovalForAll",
      "type": "event"
    },
    {
      "anonymous": false,
      "inputs": [
        {
          "indexed": true,
          "internalType": "address",
          "name": "newOwner",
          "type": "address"
        }
      ],
      "name": "OwnershipTransferred",
      "type": "event"
    },
    {
      "anonymous": false,
      "inputs": [
        {
          "indexed": true,
          "internalType": "address",
          "name": "from",
          "type": "address"
        },
        {
          "indexed": true,
          "internalType": "address",
          "name": "to",
          "type": "address"
        },
        {
          "indexed": true,
          "internalType": "uint256",
          "name": "tokenId",
          "type": "uint256"
        }
      ],
      "name": "Transfer",
      "type": "event"
    },
    {
      "anonymous": false,
      "inputs": [
        {
          "indexed": true,
          "internalType": "address",
          "name": "newImplementation",
          "type": "address"
        }
      ],
      "name": "Upgraded",
      "type": "event"
    },
    {
      "inputs": [
        {
          "internalType": "address",
          "name": "to",
          "type": "address"
        },
        {
          "internalType": "uint256",
          "name": "tokenId",
          "type": "uint256"
        }
      ],
      "name": "approve",
      "outputs": [],
      "stateMutability": "nonpayable",
      "type": "function"
    },
    {
      "inputs": [
        {
          "internalType": "address",
          "name": "owner",
          "type": "address"
        }
      ],
      "name": "balanceOf",
      "outputs": [
        {
          "internalType": "uint256",
          "name": "",
          "type": "uint256"
        }
      ],
      "stateMutability": "view",
      "type": "function"
    },
    {
      "inputs": [],
      "name": "chainName",
      "outputs": [
        {
          "internalType": "string",
          "name": "",
          "type": "string"
        }
      ],
      "stateMutability": "view",
      "type": "function"
    },
    {
      "inputs": [],
      "name": "contractId",
      "outputs": [
        {
          "internalType": "bytes32",
          "name": "",
          "type": "bytes32"
        }
      ],
      "stateMutability": "pure",
      "type": "function"
    },
    {
      "inputs": [
        {
          "internalType": "bytes32",
          "name": "commandId",
          "type": "bytes32"
        },
        {
          "internalType": "string",
          "name": "sourceChain",
          "type": "string"
        },
        {
          "internalType": "string",
          "name": "sourceAddress",
          "type": "string"
        },
        {
          "internalType": "bytes",
          "name": "payload",
          "type": "bytes"
        }
      ],
      "name": "execute",
      "outputs": [],
      "stateMutability": "nonpayable",
      "type": "function"
    },
    {
      "inputs": [
        {
          "internalType": "bytes32",
          "name": "commandId",
          "type": "bytes32"
        },
        {
          "internalType": "string",
          "name": "sourceChain",
          "type": "string"
        },
        {
          "internalType": "string",
          "name": "sourceAddress",
          "type": "string"
        },
        {
          "internalType": "bytes",
          "name": "payload",
          "type": "bytes"
        },
        {
          "internalType": "string",
          "name": "tokenSymbol",
          "type": "string"
        },
        {
          "internalType": "uint256",
          "name": "amount",
          "type": "uint256"
        }
      ],
      "name": "executeWithToken",
      "outputs": [],
      "stateMutability": "nonpayable",
      "type": "function"
    },
    {
      "inputs": [],
      "name": "gasReceiver",
      "outputs": [
        {
          "internalType": "contract IAxelarGasService",
          "name": "",
          "type": "address"
        }
      ],
      "stateMutability": "view",
      "type": "function"
    },
    {
      "inputs": [],
      "name": "gateway",
      "outputs": [
        {
          "internalType": "contract IAxelarGateway",
          "name": "",
          "type": "address"
        }
      ],
      "stateMutability": "view",
      "type": "function"
    },
    {
      "inputs": [
        {
          "internalType": "uint256",
          "name": "tokenId",
          "type": "uint256"
        }
      ],
      "name": "getApproved",
      "outputs": [
        {
          "internalType": "address",
          "name": "",
          "type": "address"
        }
      ],
      "stateMutability": "view",
      "type": "function"
    },
    {
      "inputs": [],
      "name": "implementation",
      "outputs": [
        {
          "internalType": "address",
          "name": "implementation_",
          "type": "address"
        }
      ],
      "stateMutability": "view",
      "type": "function"
    },
    {
      "inputs": [
        {
          "internalType": "address",
          "name": "owner",
          "type": "address"
        },
        {
          "internalType": "address",
          "name": "operator",
          "type": "address"
        }
      ],
      "name": "isApprovedForAll",
      "outputs": [
        {
          "internalType": "bool",
          "name": "",
          "type": "bool"
        }
      ],
      "stateMutability": "view",
      "type": "function"
    },
    {
      "inputs": [],
      "name": "name",
      "outputs": [
        {
          "internalType": "string",
          "name": "",
          "type": "string"
        }
      ],
      "stateMutability": "view",
      "type": "function"
    },
    {
      "inputs": [
        {
          "internalType": "uint256",
          "name": "",
          "type": "uint256"
        }
      ],
      "name": "original",
      "outputs": [
        {
          "internalType": "bytes",
          "name": "",
          "type": "bytes"
        }
      ],
      "stateMutability": "view",
      "type": "function"
    },
    {
      "inputs": [],
      "name": "owner",
      "outputs": [
        {
          "internalType": "address",
          "name": "owner_",
          "type": "address"
        }
      ],
      "stateMutability": "view",
      "type": "function"
    },
    {
      "inputs": [
        {
          "internalType": "uint256",
          "name": "tokenId",
          "type": "uint256"
        }
      ],
      "name": "ownerOf",
      "outputs": [
        {
          "internalType": "address",
          "name": "",
          "type": "address"
        }
      ],
      "stateMutability": "view",
      "type": "function"
    },
    {
      "inputs": [
        {
          "internalType": "address",
          "name": "from",
          "type": "address"
        },
        {
          "internalType": "address",
          "name": "to",
          "type": "address"
        },
        {
          "internalType": "uint256",
          "name": "tokenId",
          "type": "uint256"
        }
      ],
      "name": "safeTransferFrom",
      "outputs": [],
      "stateMutability": "nonpayable",
      "type": "function"
    },
    {
      "inputs": [
        {
          "internalType": "address",
          "name": "from",
          "type": "address"
        },
        {
          "internalType": "address",
          "name": "to",
          "type": "address"
        },
        {
          "internalType": "uint256",
          "name": "tokenId",
          "type": "uint256"
        },
        {
          "internalType": "bytes",
          "name": "data",
          "type": "bytes"
        }
      ],
      "name": "safeTransferFrom",
      "outputs": [],
      "stateMutability": "nonpayable",
      "type": "function"
    },
    {
      "inputs": [
        {
          "internalType": "address",
          "name": "operator",
          "type": "address"
        },
        {
          "internalType": "uint256",
          "name": "tokenId",
          "type": "uint256"
        },
        {
          "internalType": "string",
          "name": "destinationChain",
          "type": "string"
        },
        {
          "internalType": "address",
          "name": "destinationAddress",
          "type": "address"
        }
      ],
      "name": "sendNFT",
      "outputs": [],
      "stateMutability": "payable",
      "type": "function"
    },
    {
      "inputs": [
        {
          "internalType": "address",
          "name": "operator",
          "type": "address"
        },
        {
          "internalType": "bool",
          "name": "approved",
          "type": "bool"
        }
      ],
      "name": "setApprovalForAll",
      "outputs": [],
      "stateMutability": "nonpayable",
      "type": "function"
    },
    {
      "inputs": [
        {
          "internalType": "bytes",
          "name": "data",
          "type": "bytes"
        }
      ],
      "name": "setup",
      "outputs": [],
      "stateMutability": "nonpayable",
      "type": "function"
    },
    {
      "inputs": [
        {
          "internalType": "bytes4",
          "name": "interfaceId",
          "type": "bytes4"
        }
      ],
      "name": "supportsInterface",
      "outputs": [
        {
          "internalType": "bool",
          "name": "",
          "type": "bool"
        }
      ],
      "stateMutability": "view",
      "type": "function"
    },
    {
      "inputs": [],
      "name": "symbol",
      "outputs": [
        {
          "internalType": "string",
          "name": "",
          "type": "string"
        }
      ],
      "stateMutability": "view",
      "type": "function"
    },
    {
      "inputs": [
        {
          "internalType": "uint256",
          "name": "tokenId",
          "type": "uint256"
        }
      ],
      "name": "tokenURI",
      "outputs": [
        {
          "internalType": "string",
          "name": "",
          "type": "string"
        }
      ],
      "stateMutability": "view",
      "type": "function"
    },
    {
      "inputs": [
        {
          "internalType": "address",
          "name": "from",
          "type": "address"
        },
        {
          "internalType": "address",
          "name": "to",
          "type": "address"
        },
        {
          "internalType": "uint256",
          "name": "tokenId",
          "type": "uint256"
        }
      ],
      "name": "transferFrom",
      "outputs": [],
      "stateMutability": "nonpayable",
      "type": "function"
    },
    {
      "inputs": [
        {
          "internalType": "address",
          "name": "newOwner",
          "type": "address"
        }
      ],
      "name": "transferOwnership",
      "outputs": [],
      "stateMutability": "nonpayable",
      "type": "function"
    },
    {
      "inputs": [
        {
          "internalType": "address",
          "name": "newImplementation",
          "type": "address"
        },
        {
          "internalType": "bytes32",
          "name": "newImplementationCodeHash",
          "type": "bytes32"
        },
        {
          "internalType": "bytes",
          "name": "params",
          "type": "bytes"
        }
      ],
      "name": "upgrade",
      "outputs": [],
      "stateMutability": "nonpayable",
      "type": "function"
    }
  ],
  "bytecode": "0x60c06040523480156200001157600080fd5b506040516200366b3803806200366b8339810160408190526200003491620001a6565b604080518082018252601181527020bc32b630b91027232a102634b735b2b960791b60208083019182528351808501909452600384526210539360ea1b908401528151859391620000899160009190620000e3565b5080516200009f906001906020840190620000e3565b5050506001600160a01b038116620000ca5760405163e6c4247b60e01b815260040160405180910390fd5b6001600160a01b039081166080521660a052506200021b565b828054620000f190620001de565b90600052602060002090601f01602090048101928262000115576000855562000160565b82601f106200013057805160ff191683800117855562000160565b8280016001018555821562000160579182015b828111156200016057825182559160200191906001019062000143565b506200016e92915062000172565b5090565b5b808211156200016e576000815560010162000173565b80516001600160a01b0381168114620001a157600080fd5b919050565b60008060408385031215620001ba57600080fd5b620001c58362000189565b9150620001d56020840162000189565b90509250929050565b600181811c90821680620001f357607f821691505b602082108114156200021557634e487b7160e01b600052602260045260246000fd5b50919050565b60805160a0516134006200026b600039600081816103d40152818161191a0152611a580152600081816102690152818161086501528181610a90015281816119b30152611af101526134006000f3fe6080604052600436106101a15760003560e01c8063717eb03f116100e15780639ded06df1161008a578063b88d4fde11610064578063b88d4fde146104e5578063c87b56dd14610505578063e985e9c514610525578063f2fde38b1461056e57600080fd5b80639ded06df14610485578063a22cb465146104a5578063a3499c73146104c557600080fd5b80638da5cb5b116100bb5780638da5cb5b14610429578063933498761461045d57806395d89b411461047057600080fd5b8063717eb03f146103a257806380d14b4a146103c25780638291286c146103f657600080fd5b80631c93b03a1161014e578063491606581161012857806349160658146103005780635c60da1b146103205780636352211e1461035457806370a082311461037457600080fd5b80631c93b03a146102ab57806323b872dd146102c057806342842e0e146102e057600080fd5b8063095ea7b31161017f578063095ea7b314610235578063116191b6146102575780631a98b2e01461028b57600080fd5b806301ffc9a7146101a657806306fdde03146101db578063081812fc146101fd575b600080fd5b3480156101b257600080fd5b506101c66101c13660046127e9565b61058e565b60405190151581526020015b60405180910390f35b3480156101e757600080fd5b506101f061062b565b6040516101d2919061285e565b34801561020957600080fd5b5061021d610218366004612871565b6106bd565b6040516001600160a01b0390911681526020016101d2565b34801561024157600080fd5b5061025561025036600461289f565b6106e4565b005b34801561026357600080fd5b5061021d7f000000000000000000000000000000000000000000000000000000000000000081565b34801561029757600080fd5b506102556102a6366004612914565b61081b565b3480156102b757600080fd5b506101f0610926565b3480156102cc57600080fd5b506102556102db3660046129ee565b6109b4565b3480156102ec57600080fd5b506102556102fb3660046129ee565b610a2b565b34801561030c57600080fd5b5061025561031b366004612a2f565b610a46565b34801561032c57600080fd5b507f360894a13ba1a3210667c828492db98dca3e2076cc3735a920a3ca505d382bbc5461021d565b34801561036057600080fd5b5061021d61036f366004612871565b610b56565b34801561038057600080fd5b5061039461038f366004612ad3565b610bbb565b6040519081526020016101d2565b3480156103ae57600080fd5b506101f06103bd366004612871565b610c55565b3480156103ce57600080fd5b5061021d7f000000000000000000000000000000000000000000000000000000000000000081565b34801561040257600080fd5b507f6fd43e7cffc31bb581d7421c8698e29aa2bd8e7186a394b85299908b4eb9b175610394565b34801561043557600080fd5b507f02016836a56b71f0d02689e69e326f4f4c1b9057164ef592671cf0d37c8040c05461021d565b61025561046b366004612bbd565b610c6e565b34801561047c57600080fd5b506101f0610d77565b34801561049157600080fd5b506102556104a0366004612c29565b610d86565b3480156104b157600080fd5b506102556104c0366004612c79565b610dff565b3480156104d157600080fd5b506102556104e0366004612cb2565b610e0a565b3480156104f157600080fd5b50610255610500366004612d0e565b61110e565b34801561051157600080fd5b506101f0610520366004612871565b611186565b34801561053157600080fd5b506101c6610540366004612d8e565b6001600160a01b03918216600090815260056020908152604080832093909416825291909152205460ff1690565b34801561057a57600080fd5b50610255610589366004612ad3565b6111fa565b60006001600160e01b031982167f80ac58cd0000000000000000000000000000000000000000000000000000000014806105f157506001600160e01b031982167f5b5e139f00000000000000000000000000000000000000000000000000000000145b8061062557507f01ffc9a7000000000000000000000000000000000000000000000000000000006001600160e01b03198316145b92915050565b60606000805461063a90612dbc565b80601f016020809104026020016040519081016040528092919081815260200182805461066690612dbc565b80156106b35780601f10610688576101008083540402835291602001916106b3565b820191906000526020600020905b81548152906001019060200180831161069657829003601f168201915b5050505050905090565b60006106c8826112e2565b506000908152600460205260409020546001600160a01b031690565b60006106ef82610b56565b9050806001600160a01b0316836001600160a01b0316141561077e5760405162461bcd60e51b815260206004820152602160248201527f4552433732313a20617070726f76616c20746f2063757272656e74206f776e6560448201527f720000000000000000000000000000000000000000000000000000000000000060648201526084015b60405180910390fd5b336001600160a01b038216148061079a575061079a8133610540565b61080c5760405162461bcd60e51b815260206004820152603d60248201527f4552433732313a20617070726f76652063616c6c6572206973206e6f7420746f60448201527f6b656e206f776e6572206f7220617070726f76656420666f7220616c6c0000006064820152608401610775565b6108168383611349565b505050565b6000858560405161082d929190612df7565b6040519081900381207f1876eed900000000000000000000000000000000000000000000000000000000825291506001600160a01b037f00000000000000000000000000000000000000000000000000000000000000001690631876eed9906108aa908e908e908e908e908e9089908d908d908d90600401612e30565b602060405180830381600087803b1580156108c457600080fd5b505af11580156108d8573d6000803e3d6000fd5b505050506040513d601f19601f820116820180604052508101906108fc9190612e8f565b61091957604051631403112d60e21b815260040160405180910390fd5b5050505050505050505050565b6007805461093390612dbc565b80601f016020809104026020016040519081016040528092919081815260200182805461095f90612dbc565b80156109ac5780601f10610981576101008083540402835291602001916109ac565b820191906000526020600020905b81548152906001019060200180831161098f57829003601f168201915b505050505081565b6109be33826113c4565b610a205760405162461bcd60e51b815260206004820152602d60248201527f4552433732313a2063616c6c6572206973206e6f7420746f6b656e206f776e6560448201526c1c881bdc88185c1c1c9bdd9959609a1b6064820152608401610775565b610816838383611443565b6108168383836040518060200160405280600081525061110e565b60008282604051610a58929190612df7565b6040519081900381207f5f6970c300000000000000000000000000000000000000000000000000000000825291506001600160a01b037f00000000000000000000000000000000000000000000000000000000000000001690635f6970c390610acf908b908b908b908b908b908990600401612eac565b602060405180830381600087803b158015610ae957600080fd5b505af1158015610afd573d6000803e3d6000fd5b505050506040513d601f19601f82011682018060405250810190610b219190612e8f565b610b3e57604051631403112d60e21b815260040160405180910390fd5b610b4c878787878787611656565b5050505050505050565b6000818152600260205260408120546001600160a01b0316806106255760405162461bcd60e51b815260206004820152601860248201527f4552433732313a20696e76616c696420746f6b656e20494400000000000000006044820152606401610775565b60006001600160a01b038216610c395760405162461bcd60e51b815260206004820152602960248201527f4552433732313a2061646472657373207a65726f206973206e6f74206120766160448201527f6c6964206f776e657200000000000000000000000000000000000000000000006064820152608401610775565b506001600160a01b031660009081526003602052604090205490565b6006602052600090815260409020805461093390612dbc565b6001600160a01b038416301415610cef5733610c8984610b56565b6001600160a01b031614610cdf5760405162461bcd60e51b815260206004820152600e60248201527f4e4f545f594f55525f544f4b454e0000000000000000000000000000000000006044820152606401610775565b610cea838383611823565b610d71565b6001600160a01b0384166323b872dd336040516001600160e01b031960e084901b1681526001600160a01b03909116600482015230602482015260448101869052606401600060405180830381600087803b158015610d4d57600080fd5b505af1158015610d61573d6000803e3d6000fd5b50505050610d7184848484611a1d565b50505050565b60606001805461063a90612dbc565b6000610db07f360894a13ba1a3210667c828492db98dca3e2076cc3735a920a3ca505d382bbc5490565b6001600160a01b03161415610df1576040517fbf10dd3a00000000000000000000000000000000000000000000000000000000815260040160405180910390fd5b610dfb8282611b5b565b5050565b610dfb338383611bc4565b33610e337f02016836a56b71f0d02689e69e326f4f4c1b9057164ef592671cf0d37c8040c05490565b6001600160a01b031614610e5a576040516330cd747160e01b815260040160405180910390fd5b306001600160a01b0316638291286c6040518163ffffffff1660e01b815260040160206040518083038186803b158015610e9357600080fd5b505afa158015610ea7573d6000803e3d6000fd5b505050506040513d601f19601f82011682018060405250810190610ecb9190612eed565b846001600160a01b0316638291286c6040518163ffffffff1660e01b815260040160206040518083038186803b158015610f0457600080fd5b505afa158015610f18573d6000803e3d6000fd5b505050506040513d601f19601f82011682018060405250810190610f3c9190612eed565b14610f73576040517f68155f9a00000000000000000000000000000000000000000000000000000000815260040160405180910390fd5b836001600160a01b03163f8314610fb6576040517f8f84fb2400000000000000000000000000000000000000000000000000000000815260040160405180910390fd5b80156110b3576000846001600160a01b0316639ded06df60e01b8484604051602401610fe3929190612f06565b60408051601f198184030181529181526020820180517bffffffffffffffffffffffffffffffffffffffffffffffffffffffff166001600160e01b03199094169390931790925290516110369190612f1a565b600060405180830381855af49150503d8060008114611071576040519150601f19603f3d011682016040523d82523d6000602084013e611076565b606091505b50509050806110b1576040517f97905dfb00000000000000000000000000000000000000000000000000000000815260040160405180910390fd5b505b6040516001600160a01b038516907fbc7cd75a20ee27fd9adebab32041f755214dbc6bffa90cc0225b39da2e5c2d3b90600090a25050507f360894a13ba1a3210667c828492db98dca3e2076cc3735a920a3ca505d382bbc55565b61111833836113c4565b61117a5760405162461bcd60e51b815260206004820152602d60248201527f4552433732313a2063616c6c6572206973206e6f7420746f6b656e206f776e6560448201526c1c881bdc88185c1c1c9bdd9959609a1b6064820152608401610775565b610d7184848484611c93565b6060611191826112e2565b60006111a860408051602081019091526000815290565b905060008151116111c857604051806020016040528060008152506111f3565b806111d284611d11565b6040516020016111e3929190612f36565b6040516020818303038152906040525b9392505050565b336112237f02016836a56b71f0d02689e69e326f4f4c1b9057164ef592671cf0d37c8040c05490565b6001600160a01b03161461124a576040516330cd747160e01b815260040160405180910390fd5b6001600160a01b03811661128a576040517f49e27cff00000000000000000000000000000000000000000000000000000000815260040160405180910390fd5b6040516001600160a01b038216907f04dba622d284ed0014ee4b9a6a68386be1a4c08a4913ae272de89199cc68616390600090a27f02016836a56b71f0d02689e69e326f4f4c1b9057164ef592671cf0d37c8040c055565b6000818152600260205260409020546001600160a01b03166113465760405162461bcd60e51b815260206004820152601860248201527f4552433732313a20696e76616c696420746f6b656e20494400000000000000006044820152606401610775565b50565b6000818152600460205260409020805473ffffffffffffffffffffffffffffffffffffffff19166001600160a01b038416908117909155819061138b82610b56565b6001600160a01b03167f8c5be1e5ebec7d5bd14f71427d1e84f3dd0314c0f7b2291e5b200ac8c7c3b92560405160405180910390a45050565b6000806113d083610b56565b9050806001600160a01b0316846001600160a01b0316148061141757506001600160a01b0380821660009081526005602090815260408083209388168352929052205460ff165b8061143b5750836001600160a01b0316611430846106bd565b6001600160a01b0316145b949350505050565b826001600160a01b031661145682610b56565b6001600160a01b0316146114ba5760405162461bcd60e51b815260206004820152602560248201527f4552433732313a207472616e736665722066726f6d20696e636f72726563742060448201526437bbb732b960d91b6064820152608401610775565b6001600160a01b0382166115355760405162461bcd60e51b8152602060048201526024808201527f4552433732313a207472616e7366657220746f20746865207a65726f2061646460448201527f72657373000000000000000000000000000000000000000000000000000000006064820152608401610775565b6115428383836001611dbb565b826001600160a01b031661155582610b56565b6001600160a01b0316146115b95760405162461bcd60e51b815260206004820152602560248201527f4552433732313a207472616e736665722066726f6d20696e636f72726563742060448201526437bbb732b960d91b6064820152608401610775565b6000818152600460209081526040808320805473ffffffffffffffffffffffffffffffffffffffff199081169091556001600160a01b0387811680865260038552838620805460001901905590871680865283862080546001019055868652600290945282852080549092168417909155905184937fddf252ad1be2c89b69c2b068fc378daa952ba7f163c4a11628f55a4df523b3ef91a4505050565b306001600160a01b031661169f85858080601f016020809104026020016040519081016040528093929190818152602001838380828437600092019190915250611e4392505050565b6001600160a01b0316146116f55760405162461bcd60e51b815260206004820152600c60248201527f4e4f545f415f4c494e4b455200000000000000000000000000000000000000006044820152606401610775565b600080808061170685870187612f65565b9350935093509350600760405161171d9190612fc6565b6040518091039020848051906020012014156117b9576040517f23b872dd0000000000000000000000000000000000000000000000000000000081523060048201526001600160a01b038281166024830152604482018490528416906323b872dd90606401600060405180830381600087803b15801561179c57600080fd5b505af11580156117b0573d6000803e3d6000fd5b50505050611817565b60008484846040516020016117d093929190613038565b60408051601f1981840301815291815281516020808401918220600081815260069092529290208351939450919261180992919061273a565b506118148382611f42565b50505b50505050505050505050565b61182c83611f5c565b600083815260066020526040812080548291829161184990612dbc565b80601f016020809104026020016040519081016040528092919081815260200182805461187590612dbc565b80156118c25780601f10611897576101008083540402835291602001916118c2565b820191906000526020600020905b8154815290600101906020018083116118a557829003601f168201915b50505050508060200190518101906118da9190613066565b9250925092506000838383876040516020016118f994939291906130fd565b60408051601f19818403018152919052905060006119163061200c565b90507f00000000000000000000000000000000000000000000000000000000000000006001600160a01b0316630c93e3bb34308a8587336040518763ffffffff1660e01b815260040161196d959493929190613139565b6000604051808303818588803b15801561198657600080fd5b505af115801561199a573d6000803e3d6000fd5b5050604051631c92115f60e01b81526001600160a01b037f0000000000000000000000000000000000000000000000000000000000000000169350631c92115f92506119ef91508a9085908790600401613198565b600060405180830381600087803b158015611a0957600080fd5b505af1158015611814573d6000803e3d6000fd5b60006007858584604051602001611a3794939291906131db565b60408051601f1981840301815291905290506000611a543061200c565b90507f00000000000000000000000000000000000000000000000000000000000000006001600160a01b0316630c93e3bb3430878587336040518763ffffffff1660e01b8152600401611aab959493929190613139565b6000604051808303818588803b158015611ac457600080fd5b505af1158015611ad8573d6000803e3d6000fd5b5050604051631c92115f60e01b81526001600160a01b037f0000000000000000000000000000000000000000000000000000000000000000169350631c92115f9250611b2d9150879085908790600401613198565b600060405180830381600087803b158015611b4757600080fd5b505af1158015611817573d6000803e3d6000fd5b6000611b698284018461328e565b905060078054611b7890612dbc565b159050611bb1576040517f0dc149f000000000000000000000000000000000000000000000000000000000815260040160405180910390fd5b8051610d7190600790602084019061273a565b816001600160a01b0316836001600160a01b03161415611c265760405162461bcd60e51b815260206004820152601960248201527f4552433732313a20617070726f766520746f2063616c6c6572000000000000006044820152606401610775565b6001600160a01b03838116600081815260056020908152604080832094871680845294825291829020805460ff191686151590811790915591519182527f17307eab39ab6107e8899845ad3d59bd9653f200f220920489ca2b5937696c31910160405180910390a3505050565b611c9e848484611443565b611caa848484846122dc565b610d715760405162461bcd60e51b815260206004820152603260248201527f4552433732313a207472616e7366657220746f206e6f6e20455243373231526560448201527131b2b4bb32b91034b6b83632b6b2b73a32b960711b6064820152608401610775565b60606000611d1e83612434565b600101905060008167ffffffffffffffff811115611d3e57611d3e612af0565b6040519080825280601f01601f191660200182016040528015611d68576020820181803683370190505b5090508181016020015b600019017f3031323334353637383961626364656600000000000000000000000000000000600a86061a8153600a8504945084611dae57611db3565b611d72565b509392505050565b6001811115610d71576001600160a01b03841615611e01576001600160a01b03841660009081526003602052604081208054839290611dfb9084906132d9565b90915550505b6001600160a01b03831615610d71576001600160a01b03831660009081526003602052604081208054839290611e389084906132f0565b909155505050505050565b80516000908290602a14611e5a5750600092915050565b60008060025b602a811015611f3857838181518110611e7b57611e7b613308565b016020015160f81c915060618210801590611e9a575060668260ff1611155b15611eb157611eaa60578361331e565b9150611f0d565b60418260ff1610158015611ec9575060468260ff1611155b15611ed957611eaa60378361331e565b60308260ff1610158015611ef1575060398260ff1611155b15611f0157611eaa60308361331e565b50600095945050505050565b6002611f1a8260296132d9565b60ff8416911b1b929092179180611f3081613341565b915050611e60565b5090949350505050565b610dfb828260405180602001604052806000815250612516565b6000611f6782610b56565b9050611f77816000846001611dbb565b611f8082610b56565b6000838152600460209081526040808320805473ffffffffffffffffffffffffffffffffffffffff199081169091556001600160a01b0385168085526003845282852080546000190190558785526002909352818420805490911690555192935084927fddf252ad1be2c89b69c2b068fc378daa952ba7f163c4a11628f55a4df523b3ef908390a45050565b604051606082811b6bffffffffffffffffffffffff191660208301529060009060340160408051601f19818403018152828201909152601082527f30313233343536373839616263646566000000000000000000000000000000006020830152805190925060009061207f90600261335c565b61208a9060026132f0565b67ffffffffffffffff8111156120a2576120a2612af0565b6040519080825280601f01601f1916602001820160405280156120cc576020820181803683370190505b5090507f30000000000000000000000000000000000000000000000000000000000000008160008151811061210357612103613308565b60200101906001600160f81b031916908160001a9053507f78000000000000000000000000000000000000000000000000000000000000008160018151811061214e5761214e613308565b60200101906001600160f81b031916908160001a90535060005b83518110156122d35782600485838151811061218657612186613308565b016020015182517fff0000000000000000000000000000000000000000000000000000000000000090911690911c60f81c9081106121c6576121c6613308565b01602001517fff0000000000000000000000000000000000000000000000000000000000000016826121f983600261335c565b6122049060026132f0565b8151811061221457612214613308565b60200101906001600160f81b031916908160001a9053508284828151811061223e5761223e613308565b602091010151815160f89190911c600f1690811061225e5761225e613308565b01602001517fff00000000000000000000000000000000000000000000000000000000000000168261229183600261335c565b61229c9060036132f0565b815181106122ac576122ac613308565b60200101906001600160f81b031916908160001a9053506122cc81613341565b9050612168565b50949350505050565b60006001600160a01b0384163b1561242957604051630a85bd0160e11b81526001600160a01b0385169063150b7a029061232090339089908890889060040161337b565b602060405180830381600087803b15801561233a57600080fd5b505af192505050801561236a575060408051601f3d908101601f19168201909252612367918101906133ad565b60015b61240f573d808015612398576040519150601f19603f3d011682016040523d82523d6000602084013e61239d565b606091505b5080516124075760405162461bcd60e51b815260206004820152603260248201527f4552433732313a207472616e7366657220746f206e6f6e20455243373231526560448201527131b2b4bb32b91034b6b83632b6b2b73a32b960711b6064820152608401610775565b805181602001fd5b6001600160e01b031916630a85bd0160e11b14905061143b565b506001949350505050565b6000807a184f03e93ff9f4daa797ed6e38ed64bf6a1f010000000000000000831061247d577a184f03e93ff9f4daa797ed6e38ed64bf6a1f010000000000000000830492506040015b6d04ee2d6d415b85acef810000000083106124a9576d04ee2d6d415b85acef8100000000830492506020015b662386f26fc1000083106124c757662386f26fc10000830492506010015b6305f5e10083106124df576305f5e100830492506008015b61271083106124f357612710830492506004015b60648310612505576064830492506002015b600a83106106255760010192915050565b6125208383612594565b61252d60008484846122dc565b6108165760405162461bcd60e51b815260206004820152603260248201527f4552433732313a207472616e7366657220746f206e6f6e20455243373231526560448201527131b2b4bb32b91034b6b83632b6b2b73a32b960711b6064820152608401610775565b6001600160a01b0382166125ea5760405162461bcd60e51b815260206004820181905260248201527f4552433732313a206d696e7420746f20746865207a65726f20616464726573736044820152606401610775565b6000818152600260205260409020546001600160a01b03161561264f5760405162461bcd60e51b815260206004820152601c60248201527f4552433732313a20746f6b656e20616c7265616479206d696e746564000000006044820152606401610775565b61265d600083836001611dbb565b6000818152600260205260409020546001600160a01b0316156126c25760405162461bcd60e51b815260206004820152601c60248201527f4552433732313a20746f6b656e20616c7265616479206d696e746564000000006044820152606401610775565b6001600160a01b0382166000818152600360209081526040808320805460010190558483526002909152808220805473ffffffffffffffffffffffffffffffffffffffff19168417905551839291907fddf252ad1be2c89b69c2b068fc378daa952ba7f163c4a11628f55a4df523b3ef908290a45050565b82805461274690612dbc565b90600052602060002090601f01602090048101928261276857600085556127ae565b82601f1061278157805160ff19168380011785556127ae565b828001600101855582156127ae579182015b828111156127ae578251825591602001919060010190612793565b506127ba9291506127be565b5090565b5b808211156127ba57600081556001016127bf565b6001600160e01b03198116811461134657600080fd5b6000602082840312156127fb57600080fd5b81356111f3816127d3565b60005b83811015612821578181015183820152602001612809565b83811115610d715750506000910152565b6000815180845261284a816020860160208601612806565b601f01601f19169290920160200192915050565b6020815260006111f36020830184612832565b60006020828403121561288357600080fd5b5035919050565b6001600160a01b038116811461134657600080fd5b600080604083850312156128b257600080fd5b82356128bd8161288a565b946020939093013593505050565b60008083601f8401126128dd57600080fd5b50813567ffffffffffffffff8111156128f557600080fd5b60208301915083602082850101111561290d57600080fd5b9250929050565b60008060008060008060008060008060c08b8d03121561293357600080fd5b8a35995060208b013567ffffffffffffffff8082111561295257600080fd5b61295e8e838f016128cb565b909b50995060408d013591508082111561297757600080fd5b6129838e838f016128cb565b909950975060608d013591508082111561299c57600080fd5b6129a88e838f016128cb565b909750955060808d01359150808211156129c157600080fd5b506129ce8d828e016128cb565b9150809450508092505060a08b013590509295989b9194979a5092959850565b600080600060608486031215612a0357600080fd5b8335612a0e8161288a565b92506020840135612a1e8161288a565b929592945050506040919091013590565b60008060008060008060006080888a031215612a4a57600080fd5b87359650602088013567ffffffffffffffff80821115612a6957600080fd5b612a758b838c016128cb565b909850965060408a0135915080821115612a8e57600080fd5b612a9a8b838c016128cb565b909650945060608a0135915080821115612ab357600080fd5b50612ac08a828b016128cb565b989b979a50959850939692959293505050565b600060208284031215612ae557600080fd5b81356111f38161288a565b634e487b7160e01b600052604160045260246000fd5b604051601f8201601f1916810167ffffffffffffffff81118282101715612b2f57612b2f612af0565b604052919050565b600067ffffffffffffffff821115612b5157612b51612af0565b50601f01601f191660200190565b6000612b72612b6d84612b37565b612b06565b9050828152838383011115612b8657600080fd5b828260208301376000602084830101529392505050565b600082601f830112612bae57600080fd5b6111f383833560208501612b5f565b60008060008060808587031215612bd357600080fd5b8435612bde8161288a565b935060208501359250604085013567ffffffffffffffff811115612c0157600080fd5b612c0d87828801612b9d565b9250506060850135612c1e8161288a565b939692955090935050565b60008060208385031215612c3c57600080fd5b823567ffffffffffffffff811115612c5357600080fd5b612c5f858286016128cb565b90969095509350505050565b801515811461134657600080fd5b60008060408385031215612c8c57600080fd5b8235612c978161288a565b91506020830135612ca781612c6b565b809150509250929050565b60008060008060608587031215612cc857600080fd5b8435612cd38161288a565b935060208501359250604085013567ffffffffffffffff811115612cf657600080fd5b612d02878288016128cb565b95989497509550505050565b60008060008060808587031215612d2457600080fd5b8435612d2f8161288a565b93506020850135612d3f8161288a565b925060408501359150606085013567ffffffffffffffff811115612d6257600080fd5b8501601f81018713612d7357600080fd5b612d8287823560208401612b5f565b91505092959194509250565b60008060408385031215612da157600080fd5b8235612dac8161288a565b91506020830135612ca78161288a565b600181811c90821680612dd057607f821691505b60208210811415612df157634e487b7160e01b600052602260045260246000fd5b50919050565b8183823760009101908152919050565b81835281816020850137506000828201602090810191909152601f909101601f19169091010190565b89815260c060208201526000612e4a60c083018a8c612e07565b8281036040840152612e5d81898b612e07565b90508660608401528281036080840152612e78818688612e07565b9150508260a08301529a9950505050505050505050565b600060208284031215612ea157600080fd5b81516111f381612c6b565b868152608060208201526000612ec6608083018789612e07565b8281036040840152612ed9818688612e07565b915050826060830152979650505050505050565b600060208284031215612eff57600080fd5b5051919050565b60208152600061143b602083018486612e07565b60008251612f2c818460208701612806565b9190910192915050565b60008351612f48818460208801612806565b835190830190612f5c818360208801612806565b01949350505050565b60008060008060808587031215612f7b57600080fd5b843567ffffffffffffffff811115612f9257600080fd5b612f9e87828801612b9d565b9450506020850135612faf8161288a565b9250604085013591506060850135612c1e8161288a565b6000808354612fd481612dbc565b60018281168015612fec5760018114612ffd5761302c565b60ff1984168752828701945061302c565b8760005260208060002060005b858110156130235781548a82015290840190820161300a565b50505082870194505b50929695505050505050565b60608152600061304b6060830186612832565b6001600160a01b039490941660208301525060400152919050565b60008060006060848603121561307b57600080fd5b835167ffffffffffffffff81111561309257600080fd5b8401601f810186136130a357600080fd5b80516130b1612b6d82612b37565b8181528760208385010111156130c657600080fd5b6130d7826020830160208601612806565b80955050505060208401516130eb8161288a565b80925050604084015190509250925092565b6080815260006131106080830187612832565b6001600160a01b0395861660208401526040830194909452509216606090920191909152919050565b60006001600160a01b03808816835260a0602084015261315c60a0840188612832565b838103604085015261316e8188612832565b905083810360608501526131828187612832565b9250508084166080840152509695505050505050565b6060815260006131ab6060830186612832565b82810360208401526131bd8186612832565b905082810360408401526131d18185612832565b9695505050505050565b6080815260008086546131ed81612dbc565b80608086015260a060018084166000811461320f576001811461322357613254565b60ff1985168884015260c088019550613254565b8b60005260208060002060005b8681101561324b5781548b8201870152908401908201613230565b8a018501975050505b505050506001600160a01b038716602085015250905083604083015261328560608301846001600160a01b03169052565b95945050505050565b6000602082840312156132a057600080fd5b813567ffffffffffffffff8111156132b757600080fd5b61143b84828501612b9d565b634e487b7160e01b600052601160045260246000fd5b6000828210156132eb576132eb6132c3565b500390565b60008219821115613303576133036132c3565b500190565b634e487b7160e01b600052603260045260246000fd5b600060ff821660ff841680821015613338576133386132c3565b90039392505050565b6000600019821415613355576133556132c3565b5060010190565b6000816000190483118215151615613376576133766132c3565b500290565b60006001600160a01b038087168352808616602084015250836040830152608060608301526131d16080830184612832565b6000602082840312156133bf57600080fd5b81516111f3816127d356fea2646970667358221220672c1a2f9a03df4d6604748bc825e98e93e2ecdd053c86d2e02411afa195504264736f6c63430008090033",
  "linkReferences": {},
  "deployedLinkReferences": {}
}