{
  "_format": "hh-sol-artifact-1",
  "contractName": "HelloWorld",
  "sourceName": "examples/aptos-call-contract/contracts/HelloWorld.sol",
  "abi": [
    {
      "inputs": [
        {
          "internalType": "address",
          "name": "_gateway",
          "type": "address"
        },
        {
          "internalType": "address",
          "name": "_gasReceiver",
          "type": "address"
        }
      ],
      "stateMutability": "nonpayable",
      "type": "constructor"
    },
    {
      "inputs": [],
      "name": "NotApprovedByGateway",
      "type": "error"
    },
    {
      "anonymous": false,
      "inputs": [],
      "name": "Executed",
      "type": "event"
    },
    {
      "inputs": [
        {
          "internalType": "bytes32",
          "name": "commandId",
          "type": "bytes32"
        },
        {
          "internalType": "string",
          "name": "sourceChain",
          "type": "string"
        },
        {
          "internalType": "string",
          "name": "sourceAddress",
          "type": "string"
        },
        {
          "internalType": "bytes",
          "name": "payload",
          "type": "bytes"
        }
      ],
      "name": "execute",
      "outputs": [],
      "stateMutability": "nonpayable",
      "type": "function"
    },
    {
      "inputs": [
        {
          "internalType": "bytes32",
          "name": "commandId",
          "type": "bytes32"
        },
        {
          "internalType": "string",
          "name": "sourceChain",
          "type": "string"
        },
        {
          "internalType": "string",
          "name": "sourceAddress",
          "type": "string"
        },
        {
          "internalType": "bytes",
          "name": "payload",
          "type": "bytes"
        },
        {
          "internalType": "string",
          "name": "tokenSymbol",
          "type": "string"
        },
        {
          "internalType": "uint256",
          "name": "amount",
          "type": "uint256"
        }
      ],
      "name": "executeWithToken",
      "outputs": [],
      "stateMutability": "nonpayable",
      "type": "function"
    },
    {
      "inputs": [],
      "name": "gateway",
      "outputs": [
        {
          "internalType": "contract IAxelarGateway",
          "name": "",
          "type": "address"
        }
      ],
      "stateMutability": "view",
      "type": "function"
    },
    {
      "inputs": [
        {
          "internalType": "string",
          "name": "destinationChain",
          "type": "string"
        },
        {
          "internalType": "string",
          "name": "destinationAddress",
          "type": "string"
        },
        {
          "internalType": "string",
          "name": "message",
          "type": "string"
        }
      ],
      "name": "setRemoteValue",
      "outputs": [],
      "stateMutability": "payable",
      "type": "function"
    },
    {
      "inputs": [],
      "name": "sourceAddress",
      "outputs": [
        {
          "internalType": "string",
          "name": "",
          "type": "string"
        }
      ],
      "stateMutability": "view",
      "type": "function"
    },
    {
      "inputs": [],
      "name": "sourceChain",
      "outputs": [
        {
          "internalType": "string",
          "name": "",
          "type": "string"
        }
      ],
      "stateMutability": "view",
      "type": "function"
    },
    {
      "inputs": [],
      "name": "value",
      "outputs": [
        {
          "internalType": "string",
          "name": "",
          "type": "string"
        }
      ],
      "stateMutability": "view",
      "type": "function"
    }
  ],
  "bytecode": "0x608060405234801561001057600080fd5b50604051610da8380380610da883398101604081905261002f9161007c565b600080546001600160a01b039384166001600160a01b031991821617909155600480549290931691161790556100af565b80516001600160a01b038116811461007757600080fd5b919050565b6000806040838503121561008f57600080fd5b61009883610060565b91506100a660208401610060565b90509250929050565b610cea806100be6000396000f3fe6080604052600436106100705760003560e01c80633fa4f2451161004e5780633fa4f245146100f6578063491606581461010b57806380d326971461012b578063b0fa84441461013e57600080fd5b8063116191b6146100755780631a98b2e0146100b25780631c6ffa46146100d4575b600080fd5b34801561008157600080fd5b50600054610095906001600160a01b031681565b6040516001600160a01b0390911681526020015b60405180910390f35b3480156100be57600080fd5b506100d26100cd36600461078c565b610153565b005b3480156100e057600080fd5b506100e96102ee565b6040516100a991906108b3565b34801561010257600080fd5b506100e961037c565b34801561011757600080fd5b506100d26101263660046108cd565b610389565b6100d2610139366004610a14565b6104e5565b34801561014a57600080fd5b506100e961061d565b60008585604051610165929190610a9f565b6040519081900381206000547f1876eed90000000000000000000000000000000000000000000000000000000083529092506001600160a01b031690631876eed9906101c5908e908e908e908e908e9089908d908d908d90600401610ad8565b602060405180830381600087803b1580156101df57600080fd5b505af11580156101f3573d6000803e3d6000fd5b505050506040513d601f19601f820116820180604052508101906102179190610b37565b61023457604051631403112d60e21b815260040160405180910390fd5b6102e18a8a8080601f01602080910402602001604051908101604052809392919081815260200183838082843760009201919091525050604080516020601f8e018190048102820181019092528c815292508c91508b908190840183828082843760009201919091525050604080516020601f8b018190048102820181019092528981528c93508b9250908a908a90819084018382808284376000920191909152508a925061062a915050565b5050505050505050505050565b600280546102fb90610b59565b80601f016020809104026020016040519081016040528092919081815260200182805461032790610b59565b80156103745780601f1061034957610100808354040283529160200191610374565b820191906000526020600020905b81548152906001019060200180831161035757829003601f168201915b505050505081565b600180546102fb90610b59565b6000828260405161039b929190610a9f565b6040519081900381206000547f5f6970c30000000000000000000000000000000000000000000000000000000083529092506001600160a01b031690635f6970c3906103f5908b908b908b908b908b908990600401610b94565b602060405180830381600087803b15801561040f57600080fd5b505af1158015610423573d6000803e3d6000fd5b505050506040513d601f19601f820116820180604052508101906104479190610b37565b61046457604051631403112d60e21b815260040160405180910390fd5b6104db87878080601f01602080910402602001604051908101604052809392919081815260200183838082843760009201919091525050604080516020601f8b0181900481028201810190925289815292508991508890819084018382808284376000920191909152508892508791506106329050565b5050505050505050565b600082826040516020016104fa929190610a9f565b60408051601f198184030181529190529050341561059757600480546040517f0c93e3bb0000000000000000000000000000000000000000000000000000000081526001600160a01b0390911691630c93e3bb9134916105649130918b918b918991339101610bd5565b6000604051808303818588803b15801561057d57600080fd5b505af1158015610591573d6000803e3d6000fd5b50505050505b6000546040517f1c92115f0000000000000000000000000000000000000000000000000000000081526001600160a01b0390911690631c92115f906105e490889088908690600401610c34565b600060405180830381600087803b1580156105fe57600080fd5b505af1158015610612573d6000803e3d6000fd5b505050505050505050565b600380546102fb90610b59565b505050505050565b61063e81830183610c77565b8051610652916001916020909101906106aa565b5083516106669060029060208701906106aa565b50825161067a9060039060208601906106aa565b506040517f68f46c45a243a0e9065a97649faf9a5afe1692f2679e650c2f853b9cd734cc0e90600090a150505050565b8280546106b690610b59565b90600052602060002090601f0160209004810192826106d8576000855561071e565b82601f106106f157805160ff191683800117855561071e565b8280016001018555821561071e579182015b8281111561071e578251825591602001919060010190610703565b5061072a92915061072e565b5090565b5b8082111561072a576000815560010161072f565b60008083601f84011261075557600080fd5b50813567ffffffffffffffff81111561076d57600080fd5b60208301915083602082850101111561078557600080fd5b9250929050565b60008060008060008060008060008060c08b8d0312156107ab57600080fd5b8a35995060208b013567ffffffffffffffff808211156107ca57600080fd5b6107d68e838f01610743565b909b50995060408d01359150808211156107ef57600080fd5b6107fb8e838f01610743565b909950975060608d013591508082111561081457600080fd5b6108208e838f01610743565b909750955060808d013591508082111561083957600080fd5b506108468d828e01610743565b9150809450508092505060a08b013590509295989b9194979a5092959850565b6000815180845260005b8181101561088c57602081850181015186830182015201610870565b8181111561089e576000602083870101525b50601f01601f19169290920160200192915050565b6020815260006108c66020830184610866565b9392505050565b60008060008060008060006080888a0312156108e857600080fd5b87359650602088013567ffffffffffffffff8082111561090757600080fd5b6109138b838c01610743565b909850965060408a013591508082111561092c57600080fd5b6109388b838c01610743565b909650945060608a013591508082111561095157600080fd5b5061095e8a828b01610743565b989b979a50959850939692959293505050565b634e487b7160e01b600052604160045260246000fd5b600082601f83011261099857600080fd5b813567ffffffffffffffff808211156109b3576109b3610971565b604051601f8301601f19908116603f011681019082821181831017156109db576109db610971565b816040528381528660208588010111156109f457600080fd5b836020870160208301376000602085830101528094505050505092915050565b60008060008060608587031215610a2a57600080fd5b843567ffffffffffffffff80821115610a4257600080fd5b610a4e88838901610987565b95506020870135915080821115610a6457600080fd5b610a7088838901610987565b94506040870135915080821115610a8657600080fd5b50610a9387828801610743565b95989497509550505050565b8183823760009101908152919050565b81835281816020850137506000828201602090810191909152601f909101601f19169091010190565b89815260c060208201526000610af260c083018a8c610aaf565b8281036040840152610b0581898b610aaf565b90508660608401528281036080840152610b20818688610aaf565b9150508260a08301529a9950505050505050505050565b600060208284031215610b4957600080fd5b815180151581146108c657600080fd5b600181811c90821680610b6d57607f821691505b60208210811415610b8e57634e487b7160e01b600052602260045260246000fd5b50919050565b868152608060208201526000610bae608083018789610aaf565b8281036040840152610bc1818688610aaf565b915050826060830152979650505050505050565b60006001600160a01b03808816835260a06020840152610bf860a0840188610866565b8381036040850152610c0a8188610866565b90508381036060850152610c1e8187610866565b9250508084166080840152509695505050505050565b606081526000610c476060830186610866565b8281036020840152610c598186610866565b90508281036040840152610c6d8185610866565b9695505050505050565b600060208284031215610c8957600080fd5b813567ffffffffffffffff811115610ca057600080fd5b610cac84828501610987565b94935050505056fea2646970667358221220ba15d436e17175bb7c5d3a9917f92941abd4072b6b4fff2d1fd01a065e93073064736f6c63430008090033",
  "linkReferences": {},
  "deployedLinkReferences": {}
}